:100000000C942A000C943C000C943C000C943C0092
:100010000C943C000C943C000C943C000C943C0070
:100020000C943C000C943C000C943C000C943C0060
:100030000C943C000C943C000C943C000C943C0050
:100040000C943C000C943C000C943C000C943C0040
:100050000C943C0011241FBECFE5D4E0DEBFCDBF21
:1000600021E0A0E6B0E001C01D92A532B207E1F7A1
:100070000E9413010C94C1070C940000CF93DF93EE
:10008000CDB7DEB7C456D1090FB6F894DEBF0FBEA8
:10009000CDBFAC01FE0131969E012B593F4F11920D
:1000A000E217F307E1F760E070E020E030E0FA01EA
:1000B000E20FF31F90819D3299F4F901E60FF71FCB
:1000C000E40FF51F8181A1E0B0E0AC0FBD1FA60FCA
:1000D000B71F8C9382818B3331F06F5F7F4FE7CFF7
:1000E0002F5F3F4FE4CFCE0101960E949B07CC5972
:1000F000DF4F0FB6F894DEBF0FBECDBFDF91CF91BB
:100100000895CF93DF93CDB7DEB7C456D1090FB6AC
:10011000F894DEBF0FBECDBFAC01FE0131969E014B
:100120002B593F4F1192E217F307E1F760E070E0BF
:1001300020E030E0FA01E20FF31F90819C3299F445
:10014000F901E60FF71FE40FF51F8181A1E0B0E090
:10015000AC0FBD1FA60FB71F8C9382818D3231F07B
:100160006F5F7F4FE7CF2F5F3F4FE4CFCE01019608
:100170000E949B07CC59DF4F0FB6F894DEBF0FBE2D
:10018000CDBFDF91CF910895FC0120813181718332
:100190006083CB01821B930B08958F929F92AF9245
:1001A000BF92CF92DF92EF92FF920F931F9383E063
:1001B0008F9388EE8F931F9280E18F930F2EF7E03D
:1001C0008F2E912CF02D0F2EFBE1AF2EB12CF02DA8
:1001D0000F2EFAE1CF2ED12CF02D0F2EF9E1EF2EBC
:1001E000F12CF02D08E110E027E130E046E150E08D
:1001F00065E170E084E190E00E94DB0384B38FEF5F
:1002000084BBD79A0E9449070F900F900F900F90D0
:100210001F910F91FF90EF90DF90CF90BF90AF9024
:100220009F908F900895CF93DF93CDB7DEB72F9730
:100230000FB6F894DEBF0FBECDBF0E94CD0009ED12
:1002400010E0EE24E3940F2EF4E6FF2EF02DE5E708
:10025000F0E01192E017F107E1F785E790E00E94E6
:10026000550785E790E00E949B0790936E0080936E
:100270006D0085E790E00E94810090936C00809370
:100280006B0085E790E00E943E009093720080939F
:10029000710060916D0070916E006B3F7105B0F55B
:1002A00020916B0030916C002B3F310578F58B3F2E
:1002B000910560F584E690E00E94C40090936A0086
:1002C0008093690060916B0070916C0082E690E011
:1002D0000E94C40090937400809373006091710039
:1002E0007091720080E690E00E94C40090937000CC
:1002F00080936F0010926E0010926D0010926C004F
:1003000010926B001092720010927100809169003F
:1003100090916A00992354F4919581959109909355
:100320006A0080936900E092680002C01092680041
:100330008091730090917400992354F49195819564
:1003400091099093740080937300E092670002C05B
:100350001092670080916F0090917000992354F47F
:100360009195819591099093700080936F00E09230
:10037000660002C010926600809168008D878091AF
:1003800067008E87809166008F8720916900309189
:100390006A00F29EC001F39E900D1124092E000CFC
:1003A000AA0BBB0B89839A83AB83BC832091730018
:1003B00030917400F29EC001F39E900D1124092E1D
:1003C000000CAA0BBB0B8D839E83AF83B887209153
:1003D0006F0030917000F29EC001F39E900D1124C9
:1003E000092E000CAA0BBB0B89879A87AB87BC87A9
:1003F000BE016F5F7F4FCE010D960E9446041092A2
:100400006A001092690010927400109273001092AA
:10041000700010926F001BCF672B09F09FC00097F0
:1004200011F4D89808958130910511F4D998089560
:100430008230910511F4DA9808958330910511F412
:10044000DB9808958430910511F4DC980895853087
:10045000910511F4DD9808958630910511F4DE9828
:1004600008958730910511F4DF9808958A30910539
:1004700011F4C09808958B30910511F4C198089536
:100480008C30910511F4C29808958D30910511F4C6
:10049000C39808958E30910511F4C49808958F3053
:1004A000910511F4C59808958031910511F4C6980D
:1004B00008958131910511F4C7980895843191050B
:1004C00011F4A89808958531910511F4A99808951B
:1004D0008631910511F4AA9808958731910511F498
:1004E000AB9808958831910511F4AC98089589313D
:1004F000910511F4AD9808958A31910511F4AE98E3
:1005000008958B31910511F4AF9808958E319105BE
:1005100011F4909808958F31910511F491980895F0
:100520008032910511F4929808958132910511F469
:10053000939808958232910511F494980895833226
:10054000910511F4959808958432910511F49698C7
:100550000895859709F09FC097980895009711F422
:10056000D89A08958130910511F4D99A089582306E
:10057000910511F4DA9A08958330910511F4DB9A0C
:1005800008958430910511F4DC9A08958530910521
:1005900011F4DD9A08958630910511F4DE9A0895DC
:1005A0008730910511F4DF9A08958A30910511F48E
:1005B000C09A08958B30910511F4C19A08958C303A
:1005C000910511F4C29A08958D30910511F4C39AE2
:1005D00008958E30910511F4C49A08958F309105D5
:1005E00011F4C59A08958031910511F4C69A0895C1
:1005F0008131910511F4C79A08958431910511F460
:10060000A89A08958531910511F4A99A0895863123
:10061000910511F4AA9A08958731910511F4AB9AC6
:1006200008958831910511F4AC9A089589319105A6
:1006300011F4AD9A08958A31910511F4AE9A089596
:100640008B31910511F4AF9A08958E31910511F413
:10065000909A08958F31910511F4919A08958032FE
:10066000910511F4929A08958132910511F4939AAB
:1006700008958232910511F4949A08958332910578
:1006800011F4959A08958432910511F4969A08957B
:10069000859709F4979A089560E070E080910F01C2
:1006A000909110010E940C0260E070E080910B01BB
:1006B00090910C010E940C0260E070E080911B019F
:1006C00090911C010E940C02089561E070E08091FD
:1006D0000F01909110010E940C0260E070E0809187
:1006E0000B0190910C010E940C0260E070E080917F
:1006F0001B0190911C010E940C02089560E070E0C3
:1007000080910F01909110010E940C0261E070E055
:1007100080910B0190910C010E940C0260E070E04E
:1007200080911B0190911C010E940C02089561E0D0
:1007300070E080910F01909110010E940C0261E025
:1007400070E080910B0190910C010E940C0260E01E
:1007500070E080911B0190911C010E940C02089591
:1007600061E070E080910F01909110010E940C02F5
:1007700061E070E080910B0190910C010E940C02ED
:1007800061E070E080911B0190911C010E940C02BD
:100790000895BC0188EE93E00E94730716161706B1
:1007A0004CF48FEC97E00197F1F700C00000615026
:1007B0007109B9F708958F929F92AF92BF92CF922D
:1007C000DF92EF92FF920F931F93CF93DF93CDB7FA
:1007D000DEB7EF85F8899093100180930F01709335
:1007E0000C0160930B0150931C0140931B0130934B
:1007F00018012093170110931E0100931D01F09220
:100800002001E0921F01D0921201C0921101B0921A
:100810000E01A0920D01909222018092210183E0AD
:1008200090E09093160180931501E630F10599F060
:1008300034F4E130F10549F0329751F014C0E8305A
:10084000F10561F0709769F00EC00E944C030BC077
:100850000E94650308C00E947E0305C00E949703A2
:1008600002C00E94B00389899A8990931A018093EB
:100870001901DF91CF911F910F91FF90EF90DF90C1
:10088000CF90BF90AF909F908F9008958F929F923E
:10089000AF92BF92CF92DF92EF92FF920F931F938E
:1008A000CF93DF938C01EB0180911501909116019C
:1008B0008130910509F04AC0F8018081882349F010
:1008C00061E070E080911D0190911E010E940C0278
:1008D00008C060E070E080911D0190911E010E94AF
:1008E0000C0288819981AA81BB81892B8A2B8B2B51
:1008F00009F4C2C261E070E0809117019091180183
:100900000E940C028091190190911A010E94C90362
:1009100060E070E080911701909118010E940C0234
:1009200087EC90E00197F1F700C000008881998181
:10093000AA81BB810197A109B10988839983AA8300
:10094000BB83892B8A2B8B2BA9F696C2823091050B
:1009500009F093C0F8018081882349F061E070E0DC
:1009600080911D0190911E010E940C0208C060E060
:1009700070E080911D0190911E010E940C02F8010F
:100980008181882349F061E070E0809111019091AC
:1009900012010E940C0208C060E070E08091110119
:1009A000909112010E940C02488159816A817B81D9
:1009B0008C819D81AE81BF8184239523A623B7239B
:1009C000892B8A2B8B2B09F457C2452B462B472B9F
:1009D00049F061E070E080911701909118010E9448
:1009E0000C0204C0188219821A821B828C819D819C
:1009F000AE81BF81892B8A2B8B2B41F061E070E0A7
:100A000080911F01909120010E940C028091190198
:100A100090911A010E94C90360E070E08091170173
:100A2000909118010E940C0260E070E080911F011B
:100A3000909120010E940C02488159816A817B813A
:100A40004150510961097109488359836A837B8345
:100A50008C819D81AE81BF810197A109B1098C83F1
:100A60009D83AE83BF8384239523A623B723892B3D
:100A70008A2B8B2B09F0A9CFFFC18330910509F098
:100A8000D8C0F8018081882349F061E070E080914E
:100A90001D0190911E010E940C0208C060E070E0F0
:100AA00080911D0190911E010E940C02F80181812C
:100AB000882349F061E070E080911101909112016A
:100AC0000E940C0208C060E070E0809111019091DA
:100AD00012010E940C02F8018281882349F061E032
:100AE00070E080912101909122010E940C0208C0C7
:100AF00060E070E080912101909122010E940C023F
:100B0000088119812A813B818C819D81AE81BF81C1
:100B100080239123A223B323488559856A857B8549
:100B200084239523A623B723892B8A2B8B2B09F4A7
:100B3000A3C1012B022B032B49F061E070E08091EF
:100B40001701909118010E940C0204C018821982AA
:100B50001A821B828C819D81AE81BF81892B8A2B59
:100B60008B2B41F061E070E080911F01909120019A
:100B70000E940C0288859985AA85BB85892B8A2BC2
:100B80008B2B41F061E070E080910D0190910E019E
:100B90000E940C028091190190911A010E94C903D0
:100BA00060E070E080911701909118010E940C02A2
:100BB00060E070E080911F01909120010E940C0282
:100BC00060E070E080910D0190910E010E940C0296
:100BD000088119812A813B810150110921093109BC
:100BE000088319832A833B834C815D816E817F81D9
:100BF00041505109610971094C835D836E837F8384
:100C000088859985AA85BB850197A109B10988873F
:100C10009987AA87BB8740235123622373238423A8
:100C20009523A623B723892B8A2B8B2B09F081CF01
:100C300023C1049709F020C1F8018081882349F07D
:100C400061E070E080911D0190911E010E940C02F4
:100C500008C060E070E080911D0190911E010E942B
:100C60000C02F8018181882349F061E070E08091F5
:100C70001101909112010E940C0208C060E070E026
:100C800080911101909112010E940C02F801828161
:100C9000882349F061E070E0809121019091220168
:100CA0000E940C0208C060E070E0809121019091E8
:100CB00022010E940C02F8018381882349F061E03F
:100CC00070E080911301909114010E940C0208C001
:100CD00060E070E080911301909114010E940C0279
:100CE000C880D980EA80FB808C819D81AE81BF81E4
:100CF0008C219D21AE21BF21488559856A857B8540
:100D000084239523A623B7234C855D856E857F8537
:100D100084239523A623B723892B8A2B8B2B09F4B5
:100D2000ABC0CD28CE28CF2849F061E070E080919B
:100D30001701909118010E940C0204C018821982B8
:100D40001A821B828C819D81AE81BF81892B8A2B67
:100D50008B2B41F061E070E080911F0190912001A8
:100D60000E940C0288859985AA85BB85892B8A2BD0
:100D70008B2B41F061E070E080910D0190910E01AC
:100D80000E940C028C859D85AE85BF85892B8A2BA0
:100D90008B2B41F061E070E0809123019091240160
:100DA0000E940C028091190190911A010E94C903BE
:100DB00060E070E080911701909118010E940C0290
:100DC00060E070E080911F01909120010E940C0270
:100DD00060E070E080910D0190910E010E940C0284
:100DE00060E070E080912301909124010E940C0248
:100DF000C880D980EA80FB80F1E0CF1AD108E108F1
:100E0000F108C882D982EA82FB828C809D80AE8004
:100E1000BF8081E0881A9108A108B1088C829D8268
:100E2000AE82BF82088519852A853B85015011094C
:100E300021093109088719872A873B874C855D85F9
:100E40006E857F85DB01CA010197A109B1098C87F5
:100E50009D87AE87BF878C209D20AE20BF200821B4
:100E600019212A213B2180239123A223B323892BFB
:100E70008A2B8B2B09F055CFDF91CF911F910F91CA
:100E8000FF90EF90DF90CF90BF90AF909F908F90AA
:100E9000089587E689B910BC88E18AB986E880BDE3
:100EA00008955F9BFECF8CB108950F931F93CF934E
:100EB0008C01C0E00E9451078B3329F4F801EC0F3C
:100EC000F11D80830CC0883021F4CC2311F0C15077
:100ED000F1CFF801EC0FF11D8083CF5FEBCFCF9105
:100EE0001F910F91089597FB072E16F4009407D0D9
:100EF00077FD09D00E94870707FC05D03EF4909546
:100F000081959F4F0895709561957F4F0895AA1B15
:100F1000BB1B51E107C0AA1FBB1FA617B70710F0E4
:100F2000A61BB70B881F991F5A95A9F78095909516
:100F3000BC01CD010895FC0188279927E8942191EF
:100F40002032E9F3293010F02E30C8F32B3241F073
:100F50002D3239F4689404C00E94B907820F911DA4
:100F6000219120532A30C0F31EF4909581959F4F14
:100F700008957AE0979F902D879F802D910D1124E1
:060F80000895F894FFCF74
:00000001FF
